:020000040800F2
:100000006860002069020008270E0008230E00081F
:10001000250E000899030008D50F00080000000015
:10002000000000000000000000000000AD0100081A
:100030009B0300080000000001020008490E0008B0
:10004000830200088302000883020008830200087C
:10005000830200088302000883020008830200086C
:10006000830200088302000883020008830200085C
:10007000830200088302000883020008830200084C
:1000800083020008830200088302000800000000C9
:1000900000000000000000000000000083020008D3
:1000A000830200088302000883020008830200081C
:1000B0008302000883020008390F00088302000849
:1000C00083020008830200088302000883020008FC
:1000D0008302000883020008830200080000000079
:1000E0008302000883020008830200080000000069
:1000F0000000000000000000000000008302000873
:100100000000000083020008830200088302000848
:1001100000000000000000000000000000000000DF
:10012000830200088302000883020008830200089B
:100130008302000800000000000000000000000032
:100140000000000000000000000000008302000822
:10015000830200088302000883020008830200086B
:100160008302000883020008000000000000000075
:10017000000000000000000000000000000000007F
:1001800000000000830200080000000000000000E2
:100190008302000883020008DFF80CD000F0EAF8C0
:1001A00000480047F50F0008686000202B4B1968D5
:1001B0000868B0E8F04F80F30988BFF36F8F4FF005
:1001C000000080F3118870470000000006480068B6
:1001D000006880F3088862B661B6BFF34F8FBFF343
:1001E0006F8F00DF00BF00BF08ED00E0DFF80C00FC
:1001F000016841F470010160704700BF88ED00E0C4
:10020000EFF30980BFF36F8F144B1A681EF0100FC5
:1002100008BF20ED108A20E9F04F106008B44FF0BD
:10022000500080F31188BFF34F8FBFF36F8F02F040
:1002300051FB4FF0000080F3118808BC1968086872
:10024000B0E8F04F1EF0100F08BFB0EC108A80F33A
:100250000988BFF36F8F704700BF00BF9400002074
:10026000EFF30580704700000648804706480047C6
:10027000FEE7FEE7FEE7FEE7FEE7FEE7FEE7FEE756
:10028000FEE7FEE7E50E0008990100082DE9F05FA2
:100290000546002092469B468846064681464024F5
:1002A0001BE0284641464746224600F053F8534695
:1002B0005A46C01A914110D311461846224600F002
:1002C0003AF82D1A67EB01084F462246012000211B
:1002D00000F031F817EB00094E41201EA4F1010493
:1002E000DFDC484631462A464346BDE8F09F40EAF7
:1002F00001039B0703D009E008C9121F08C0042AA4
:10030000FAD203E011F8013B00F8013B521EF9D28A
:100310007047D2B201E000F8012B491EFBD27047B2
:100320000022F6E710B513460A4604461946FFF7C1
:10033000F0FF204610BD202A04DB203A00FA02F12B
:10034000002070479140C2F1200320FA03F31943C3
:1003500090407047202A04DB203A21FA02F0002165
:10036000704721FA02F3D040C2F1200291400843C5
:1003700019467047064C074D06E0E06840F001035F
:1003800094E8070098471034AC42F6D3FFF708FF13
:10039000D83C0008F83C0008FEE770472DE9F84F0C
:1003A000DFF860B100224FF001084FF0030A4FF070
:1003B0000F090BF1040E00BF0B6808FA02F423408A
:1003C000A3426ED14D68022D01D0122D0ED1D50859
:1003D00000EB850CDCF820505607F70E09FA07F6FB
:1003E000B5430E69BE402E43CCF820600668550028
:1003F0000F790AFA05FC07F0030726EA0C06AF405E
:10040000374307604E68012E05D0022E03D0112E0F
:1004100001D0122E0ED18668CF6826EA0C06AF40B6
:10042000374387604668A6430C79C4F300149440B0
:1004300034434460C6688C6826EA0C06AC403443FA
:10044000C4604C68E40056D52F4C256845F48045BF
:100450002560246822F0030504F4804400942B4CAA
:100460002E19D6F8084895072F0F09FA07F5AC435F
:10047000274DA84201D1002515E0264DA84201D103
:10048000012510E0244DA84201D102250BE0234DA7
:10049000A84201D1032506E0214DA84202D104253E
:1004A00001E028E00725BD402543C6F80858DBF8E1
:1004B00000405D464E689C43F60300D51C432C600B
:1004C000DEF8004075464E689C43B60300D51C43D9
:1004D0002C600C4D08352C684E689C43F60200D504
:1004E0001C432C60074D0C352C684E689C43B602AB
:1004F00000D51C432C60521C102AFFF45DAFBDE8F0
:10050000F88F0000003C01404438024000300140B8
:10051000000002400004024000080240000C0240BB
:10052000001002400AB1816170470904FBE7000036
:100530000148806870470000600000200248816820
:100540000278114481607047600000200B4810B5AC
:10055000016841F400710160016841F4806101604B
:10056000016841F480710160032000F0B1F80020BF
:1005700000F006F800F03EF8002010BD003C0240FC
:1005800010B5014688B000221E2000F081F81E2020
:1005900000F072F813480024016841F00401016082
:1005A000006805A900F004000690684600F03AF9DA
:1005B00000F05EF90C494000B0FBF1F10C480B4A29
:1005C000491E026040F2E732C0E90324C0E9011489
:1005D00000F03EFB10B1012008B010BD044800F04F
:1005E00053FBF9E74038024040420F00000800404A
:1005F000D00000201F4808B5016841F48041016027
:10060000006800F4804000901A48001F016841F023
:1006100080510160006800F080500090032000F0DD
:1006200057F8002211466FF00B0000F031F800225D
:1006300011466FF00A0000F02BF8002211466FF00F
:10064000090000F025F800221146501F00F020F8A4
:1006500000221146101F00F01BF800220F21901EEF
:1006600000F016F800220F21BDE80840501E00F0EF
:100670000FB800004438024000F01F0201219140F1
:100680004009800000F1E020C0F800117047000030
:10069000F0B40E4B1B680C46C3F30223C3F10705ED
:1006A000042D00D90425191D072901D2002300E0DB
:1006B000DB1E012606FA05F1491E214099409E40A5
:1006C000761E16403143F0BC00F0AEBB0CED00E0EE
:1006D000064900F0070208684FF6FF03184040EA99
:1006E0000220034A10430860704700000CED00E050
:1006F0000000FA052DE9F0470E46050065D0DFF849
:100700001481D8F80000F7B200F00F00B04207D211
:1007100088F80070D8F8000000F00F00B04254D103
:1007200028683D4C810712D5400703D5206840F466
:10073000E05020602878000703D5206840F460402E
:1007400020602068A96820F0F00008432060287825
:10075000C0072DD0304968680839012812D0022816
:1007600013D0032811D00968890700292DDA2168E0
:1007700021F0030101432160FFF7DAFE814641F2D7
:10078000883A0EE009688903EFE709688901ECE718
:10079000FFF7CEFEA0EB0901514502D90320BDE8C9
:1007A000F0872068696800F00C00B0EB810FEFD192
:1007B000D8F80010404601F00F01B14207D9077088
:1007C000006800F00F00B04201D00120E7E7287870
:1007D000400705D52068E96820F4E0500843206010
:1007E0002878000706D52068296920F4604040EA8F
:1007F000C100206000F04CF82168084AC1F30311E1
:10080000515CC840064908600020FFF7B9FE00208F
:10081000C5E70000003C024008380240BC35000833
:100820006C0000200F2202600C4A136803F00303DF
:100830004360136803F0F0038360136803F4E0532C
:10084000C36012684FF4E05303EAD2020261044825
:10085000006800F00F000860704700000838024090
:10086000003C024001480068704700006C00002016
:100870000448054900680968044AC1F38221515CB3
:10088000C84070476C00002008380240CC35000892
:10089000154810B5006810F00C02144813D0411030
:1008A000042A0FD0082A0ED10F4C241F2268236877
:1008B00002F03F025B0207D52068C0F38810A0FB5E
:1008C000010106E0084610BD2168C1F38811A1FBB3
:1008D00000010023FFF7DAFC2168C1F30141491C44
:1008E0004900B0FBF1F010BD083802400024F400CC
:1008F0002DE9F84F050076D02878DFF8F8B2BE4C25
:10090000C00749D0DBF800105846C1F38101012926
:1009100008D00068C0F3810002280AD1201D0068B9
:10092000400206D52068800336D568680028E2D0EA
:1009300032E06868B0F5803F10D0B0F5A02F206895
:1009400010D020F480302060206820F480202060C7
:100950006868A0B1FFF7ECFD06460CE0206840F4A3
:100960008030F4E740F480202060F7E7FFF7E0FDF7
:10097000801B642873D820688003F7D50CE0FFF74C
:10098000D7FD064605E000BFFFF7D2FD801B6428B7
:10099000F0D820688003F7D42878DFF860828007D9
:1009A0004FF000093ED5DBF80010584611F00C0F4F
:1009B00009D00068C0F3810002280BD18D48001FC8
:1009C0000068400206D42068800715D5E868012831
:1009D00009D111E0E868B8B10120C8F80000FFF7BC
:1009E000A7FD064605E002E1FFF7A2FD801B0228F5
:1009F000C0D820688007F7D52068296920F0F80062
:100A000040EAC10020600DE0C8F80090FFF790FDBB
:100A1000064604E0FFF78CFD801B02281FD82068E3
:100A20008007F7D42878000722D5724E7448696988
:100A30006C3671B101210160FFF77AFD074604E0D1
:100A4000FFF776FDC01B022809D830688007F7D56C
:100A50000EE0C0F80090FFF76BFD074605E083E06D
:100A6000FFF766FDC01B02287ED830688007F7D4E8
:100A70002878400768D5DFF87CA100270AF1380AFA
:100A8000DAF80000C0000BD4DAF8001041F0805111
:100A9000CAF80010DAF80000012700F0805000903A
:100AA000584E3068C00510D4306840F48070306013
:100AB000FFF73EFD009005E0FFF73AFD0099401A70
:100AC000022851D83068C005F6D54A4EA868683665
:100AD00001280FD00528306810D020F001003060C8
:100AE000306820F004003060A868B8B1FFF720FD3E
:100AF00000900FE0306840F00100F4E740F004009F
:100B00003060F7E7FFF714FD0099411A41F2883091
:100B1000814264D830688007F4D50EE0FFF708FD05
:100B2000009007E0FFF704FD0099411A41F2883078
:100B3000814254D830688007F4D42FB1DAF800101D
:100B400021F08051CAF80010A869C0B3DBF800108A
:100B5000C1F3810102294AD00228484607D0C8F8CB
:100B60006000FFF7E5FC00E039E005463AE0474663
:100B7000C8F86000FFF7DCFC064604E0FFF7D8FC8D
:100B8000801B02282BD820688001F7D4D5E9070103
:100B90000843A96A1C4A490802EB01416A6A41EA12
:100BA0008211084395F82C1040EA01611148001F9A
:100BB000016001203866FFF7BBFC054605E014E044
:100BC000FFF7B6FC401B022809D820688001F7D542
:100BD0000BE000BFFFF7ACFC401B022802D903204A
:100BE000BDE8F88F20688001F4D40020F8E70120E8
:100BF000F6E7000008380240003802400000474293
:100C0000800E4742007000400000FFFF4FF0E021DF
:100C10000428086903D020F004000861704740F000
:100C20000400FAE710B5401EB0F1807F01D3012027
:100C300010BD4FF0E02460610F21601700F0F4F860
:100C40000020A06107202061002010BD7047704780
:100C500010B5040003D094F8390010B107E001206A
:100C600010BD002084F83800204600F00CF8022067
:100C700084F83900211D206800F064F9012084F80F
:100C80003900002010BD70470168CA6842F00102B7
:100C9000CA600068016841F00101016000207047EE
:100CA000704770B50446006801694FF00005C943FC
:100CB000890715D4C168C943890711D4E91E0161A8
:100CC00001202076206880698007204602D0FFF747
:100CD000E7FF04E000F098F8204600F096F825764B
:100CE00020680169C943490717D4C168C943490746
:100CF00013D46FF00401016102202076206880691E
:100D000010F4407F204602D0FFF7CAFF04E000F055
:100D10007BF8204600F079F8257620680169C94300
:100D2000090716D4C168C943090712D46FF0080136
:100D30000161042020762068C0698007204602D027
:100D4000FFF7AEFF04E000F05FF8204600F05DF82A
:100D5000257620680169C943C90617D4C168C9430B
:100D6000C90613D46FF010010161082020762068B5
:100D7000C06910F4407F204602D0FFF791FF04E0E5
:100D800000F042F8204600F040F82576206801691E
:100D9000C943C90708D1C168C943C90704D1891E1D
:100DA0000161204600F032F820680169C943090654
:100DB00009D4C168C943090605D46FF080010161F7
:100DC0002046FFF743FF20680169C943490609D45B
:100DD000C168C943490605D46FF04001016120464E
:100DE00000F01EF820680169C94389060BD4C16868
:100DF000C943890607D46FF0200101612046BDE890
:100E00007040FFF724BF70BD70477047006803490A
:100E1000884201D1FFF792BB7047000000080040F4
:100E20007047FEE7FEE770470907090E002806DA5B
:100E300000F00F0000F1E02080F8141D704700F171
:100E4000E02080F80014704700F03AB930B523482C
:100E500093B00025016841F080510160006800F006
:100E6000805011901E48016841F4404101600068C3
:100E7000022400F4404011900120009000040190F1
:100E80008001CDE9064008AA0420642182E813000D
:100E90000B906846FFF72CFD00B1FEE70CA90F2070
:100EA00081E831004FF48050CDE90F0503210CA8F3
:100EB000FFF720FC00B1FEE7FFF7D4FC4FF47A7196
:100EC000B0FBF1F0FFF7AEFE0420FFF79FFE00221B
:100ED0000F21501EFFF7DCFB13B030BD403802403D
:100EE000007000401048016841F4700101600F4833
:100EF000016841F0010101600C4A002108321160D3
:100F000002680B4B1A400260031D0A4A1A6002680D
:100F100022F48022026005480C3001600249580624
:100F2000803908607047000088ED00E0003802401A
:100F3000FFFFF6FE103000240148FFF7B2BE0000AC
:100F4000D0000020F0B502681B4B1C4C9F031C4DC9
:100F50001C4E984207D0B84205D0A04203D0A84208
:100F600001D0B04204D122F0700C4A6842EA0C026F
:100F7000984210D0B8420ED0A0420CD0A8420AD05D
:100F8000B04208D0104CA04205D0104CA04202D074
:100F90000F4CA04203D122F44074CA68224302607D
:100FA0008A68C2620A688262984201D10969016353
:100FB00001214161F0BD000000000140000400403B
:100FC00000080040000C0040004001400044014087
:100FD00000480140FEE702E008C8121F08C1002ACD
:100FE000FAD170477047002001E001C1121F002AAA
:100FF000FBD1704786B0FFF7A9FAFFF727FF244817
:101000000024016841F080010160016801F0800165
:101010000591016841F00101016000681D4E00F07A
:1010200001000590224620213046FFF77BFA202060
:1010300000900125CDE90154694630460394FFF73D
:10104000ADF900220421052001F06AFD1249086073
:10105000E0B1CDE900544FF47A76642332460FA113
:10106000104802F0A3F8CDE90054C82332460EA17F
:101070000C4802F09BF80220CDE900040023324620
:101080000BA10E4802F092F801F0E8FBFEE7000029
:1010900030380240000002400000002053656E64BA
:1010A00065723100E926000853656E64657232008E
:1010B000526563656976657200000000CD26000800
:1010C00010B502F0A5F8012803D0BDE8104001F0EA
:1010D00011BD10BD2DE9F041184C0F460546E668DC
:1010E0002068001D01F01CFA38B9206890F82C1017
:1010F00001208840216981432161681C07D137B1F3
:101100002168BDE8F0410E48091D01F059BA206878
:101110003544B5424560216805D2A06BBDE8F04179
:10112000091D01F035BA606B091D01F031FAA06AA2
:10113000854200D2A562BDE8F08100009400002045
:10114000905700202DE9F041054601F045FA4F4C3B
:10115000A068401CA06020684D4F10B1606940B38A
:101160002DE02560A068012829D1002606EB860025
:1011700007EB800001F0FEF9761C072EF6D34448F9
:101180008C3001F0F7F94248A03001F0F3F9404803
:10119000B43001F0EFF93E48C83001F0EBF93C48BB
:1011A000DC3001F0E7F93A488C3060631430A0631A
:1011B00005E02068E96AC06A884200D82560606A54
:1011C000344E401C6062686495B3032000F03CFB21
:1011D0000146284600F0F3FD2F480188284600F01C
:1011E000E1FD284600F057FCC1B205F134020320AE
:1011F00000F0A0FC284600F04EFCC1B295F82C206F
:10120000032000F055FD00F081FA00F03FFC31882A
:1012100008420DD0284600F039FC3188084207D03A
:10122000284600F038FCC2B203211B2000F0D4FD98
:10123000284600F02BFC3188084205D0284600F0F3
:101240002AFCC0B200F028FFE96A01202269884028
:101250001043206101EB810007EB8000291D01F0A4
:10126000AFF901F0D9F9606900280CD02068E96A6B
:10127000C06A884207D209494FF080500860BFF326
:101280004F8FBFF36F8FBDE8F08100009400002006
:10129000B4560020100000201200002004ED00E0F1
:1012A0002DE9F0414FF000041B4F060025462ED1DA
:1012B000BDE8F041194800F00DBA396BC86903194F
:1012C00001EB830090F86829A2F1990CBCF10F0F93
:1012D0000DD2983AD2B2896913448B4216D20421B6
:1012E00001EB820100F66810FFF71AF80EE0012A00
:1012F0000CD18A695B1C9A4204D9C0F86859C0F8BD
:101300006C5903E0C1F86859C0F86859641CB442CC
:10131000D3D3BDE8F08100000C00002000390008A4
:1013200070B5114E114C17E001F0CCFA3068B8B12D
:1013300002F0D0F801F050F9F068C568281D01F0FE
:10134000EFF8A068401EA0606068401E606001F079
:1013500063F9284600F055F860680028E4D170BDB4
:1013600002F0B8F8F8E700007C5700209400002055
:1013700030B4026C0B46002A0BD0C1681144C16026
:101380004468A14201D30168C16030BC1846FEF731
:10139000AEBF30BC70472DE9F041856B174604465F
:1013A0000026026C82B1C7B1E068FEF7A0FFE168D9
:1013B000206C091AE1602268914202D26168081A21
:1013C000E060022F16D017E02068A8B9606801F02D
:1013D000B5FF0646002060600EE0A068FEF787FFBC
:1013E000216CA0680844A0606168884204D320682A
:1013F000A06001E005B16D1E6D1CA5633046BDE81F
:10140000F08110B50446006B01F01AF92046BDE8E2
:10141000104001F015B9000010484FF47051420718
:1014200006D0C01D0D4920F00700411AC1F57051CA
:101430000B4A00230144C2E900030839103A21F0A5
:10144000070111604B600B600B1AC0E90013936039
:101450004FF000405360D06070470000B41A002085
:1014600080000020074C4FF08056074DFFF758FFD3
:1014700020680128FAD92E60BFF34F8FBFF36F8F1A
:10148000F4E70000B456002004ED00E02DE9F0413F
:101490001D46069C002952D0C4F80020C4E90F0163
:1014A0000121204601F0D4FC84F84C50204600F085
:1014B000EBFA244D285C00F0C7F90146204600F005
:1014C00048FC21480188204600F036FC204600F008
:1014D000D6FAC6B2204600F0D7FA285C314600F0B2
:1014E000B9F800F013F900F0D1FA184E318808422B
:1014F00017D0204600F0BEFA3188084211D02046AD
:1015000000F0BDFAC7B2204600F0BEFA2E5C2046BD
:1015100000F0BAFA285C3A461830C0B2314600F002
:101520005BFC204600F0ABFAC6B2204600F0ACFAF5
:10153000285C3146BDE8F041002200F077BB246012
:10154000ACE7000004000020120000201000002082
:101550002DE9F0470E46DDE90984174682469100E1
:101560009946089DA522206BFEF7D3FE6FF003017C
:10157000206B01EB8701084420F00707780707D0AC
:10158000502080F31188BFF34F8FBFF36F8FFEE7BA
:101590002218315C82F83410315C11B1401C1028E3
:1015A000F6D3002684F84360072D00D30625E562B4
:1015B000C4E91356201D00F0E8FF04F1180000F004
:1015C000E4FF2461C5F107006462A061666584F8E8
:1015D00058604A465146384600F028FF2060B8F16E
:1015E000000F01D0C8F80040BDE8F08730B51149C0
:1015F00000E011460A688242FBD34B685C188442C3
:1016000003D1406818444860084643681C18944257
:1016100009D1084C103C2468A24209D052681A44EF
:1016200042600A6812680260814200D0086030BDE2
:101630000460F9E78000002010B5044600F0CCFFFC
:10164000A06B28B15FF0000400F0E6FF204610BD5B
:101650000124F9E70A4610B50146104600F000FFE4
:10166000034A0121126B104480F89C1010BD000049
:101670000C0000200648416B096829B1416BC9681C
:10168000C9684968816270474FF0FF31FAE700008E
:101690009400002010B5002305E0CC5CC454CC5C61
:1016A000002C02D05B1C9342F7D310BD0848406861
:1016B000401C4FF0500080F3118804D0BFF34F8FCF
:1016C000BFF36F8FFEE7BFF34F8FBFF36F8FFEE760
:1016D0008800002070B50C4C0546206B08B101F065
:1016E00039F9606A00280DD16562206B294600280F
:1016F00008D0502200F61410FFF7CCFF216B012018
:10170000C1F80C0970BD00000C00002001F07ABD8A
:10171000F8B5002605464FF6FF770096FF2806D05D
:10172000BD4204D02CA0FFF7D5FF0020F8BD3A4CF5
:10173000206B416A61B9216A11B18908416207E0F1
:1017400036494968626C914202D035490968F4E72C
:10175000684600F0CFF92046009AA16B8263006BC7
:10176000541A416AC1B1A1420BD2B4FBF1F2C36A6F
:101770001A44C262B4FBF1F201FB1242836A1A44BA
:1017800001E0826A224482628A4206D3C36A511A05
:101790005B1CC0E90A1300E08262AC4211D900F080
:1017A0007FF970B1BD4205D1A9210170210C4180A2
:1017B000467004E0FF2D07D01AA0FFF78BFF00F062
:1017C00021FD04EA0500F8BDA8210170210A41802D
:1017D000210E4170F3E7000054524143455F4153ED
:1017E000534552543A20707276547261636547656E
:1017F000744454533A20496E76616C696420766172
:101800006C756520666F7220706172616D5F6D61CD
:1018100078445453000000000C000020001000E049
:101820006C00002042616420706172616D5F6D61C7
:101830007844545320696E207072765472616365E7
:1018400047657444545300002DE9F041214C216B4D
:1018500039B1092807D32048FFF73CFF0020BDE835
:10186000F0811E48F8E7EFF31085012181F310881D
:10187000E169491CE1611A490A4631F81030636395
:10188000CE1802EB400296F8487027B9977CDB1B14
:101890005B1C86F8483096F8483031F81060978C19
:1018A000BE4205D900F0FCFCFFF714FF00230AE05C
:1018B000761CB6B221F81060508AD18E301A81425F
:1018C00001DAC0B2D086E069401EE06185F310887D
:1018D0001846C4E70C000020903C0008BC38000803
:1018E0000C01002070B50A460446092801D30D48B2
:1018F00007E00D4D286B204490F86400904204D21C
:101900000AA0FFF7E7FE002070BD2146104600F058
:10191000A7FD296B0A199C3092F870201144085CCD
:1019200070BD0000F03900080C0000205452414303
:10193000455F4153534552543A2070727654726158
:1019400063654765744F626A656374537461746557
:101950003A20496E76616C69642076616C75652009
:10196000666F72206964000070B505460C46FF285A
:1019700008D0A5F57F40FF3804D00CA0FFF7AAFEE1
:10198000204670BDAC4201D8084670BD00F088F812
:1019900048B10121017024EA05010A0A4270090CCC
:1019A000418000F02FFC04EA050070BD5452414311
:1019B000455F4153534552543A20707276547261D8
:1019C0006365476574506172616D3A20496E766156
:1019D0006C69642076616C756520666F7220706139
:1019E00072616D5F6D61780070B50A460446092822
:1019F00001D30D4807E00D4D286B204490F864009A
:101A0000904204D20AA0FFF765FE002070BD214677
:101A1000104600F025FD296B0A199D3092F87020C0
:101A20001144085C70BD0000783A00080C000020EA
:101A300054524143455F4153534552543A207072CA
:101A40007654726163654765745072696F72697428
:101A50007950726F70657274793A20496E76616C54
:101A600069642076616C756520666F722069640018
:101A700000F068BD10B500F065FD000C10BD10B59C
:101A800000F060FD80B210BD00F0E6BC10B500F0C3
:101A90006DFD000C10BD10B500F068FD80B210BDEA
:101AA000094810B5006B016B31B1C169B1F57A7F9E
:101AB00004D306A0FFF70EFE002010BD00EB81004E
:101AC00000F6681010BD00000C0000204174746521
:101AD0006D707420746F20696E646578206F757402
:101AE00073696465206576656E74206275666665E7
:101AF0007221000030B50D490B464A699B69012AE5
:101B00000FD00B4A5268CC6B0D6C141B2C44A508EB
:101B100004F003042B440C648B6100B10360CA63BE
:101B200030BD0028FCD0036030BD00000C00002058
:101B3000001000E070B516000B46054603D0092DD5
:101B400003D314A00CE01FA00AE06BB12A4C206B59
:101B5000284490F86400984208D2284600F0A0FB80
:101B6000BDE87040FFF7B6BD24A0F9E72946184646
:101B700000F076FC2081616A00290AD1216B4A19A4
:101B8000084492F870203146BDE870409C30FFF761
:101B900081BD70BD496C6C6567616C206F626A6560
:101BA000637420636C61737320696E207072765465
:101BB000726163655365744F626A6563744E616DEB
:101BC0006500000054524143455F41535345525410
:101BD0003A2070727654726163655365744F626A1D
:101BE0006563744E616D653A206E616D65203D3DA3
:101BF000204E554C4C0000000C000020496C6C65D8
:101C000067616C2068616E646C65202830292069EA
:101C10006E2070727654726163655365744F626AA8
:101C20006563744E616D652E0000000070B5164648
:101C30000B460446092801D30C4807E00C4D286BDD
:101C4000204490F86400984204D20AA0BDE8704095
:101C5000FFF740BD2146184600F002FC296B0A1927
:101C60009C3092F8702011440E5470BD343A000834
:101C70000C00002054524143455F41535345525498
:101C80003A2070727654726163655365744F626A6C
:101C900065637453746174653A20496E76616C694A
:101CA000642076616C756520666F7220696400003F
:101CB00070B516460B460446092801D30C4807E0C8
:101CC0000C4D286B204490F86400984204D20AA07E
:101CD000BDE87040FFF7FEBC2146184600F0C0FB8F
:101CE000296B0A199D3092F8702011440E5470BD72
:101CF000C43A00080C00002054524143455F415350
:101D0000534552543A20707276547261636553653C
:101D1000745072696F7269747950726F7065727401
:101D2000793A20496E76616C69642076616C7565DC
:101D300020666F722069640070B504460D46FFF797
:101D400097FE65F31F4001462046BDE8704000F055
:101D5000BBBC70B50C460546FFF78AFE010C0904B2
:101D600021432846BDE8704000F0AEBC10B50B4CD6
:101D7000216B91F86710814204D2BDE810400848F9
:101D8000FFF7A8BC032100F06BFB216B91F87320D7
:101D9000114400229C300A5410BD00000C000020A9
:101DA000683B000870B504460D4600F0DFFB65F3A4
:101DB0001F4001462046BDE8704000F039BD70B5B7
:101DC0000C46054600F0D2FB010C090421432846CD
:101DD000BDE8704000F02CBD2DE9F04117460646E5
:101DE000FF2801D31CA00FE0092901D328480BE0EC
:101DF000284C206B014491F86410B94201D2264866
:101E000002E0E16921B125A0BDE8F041FFF762BC25
:101E1000617800291DD0EFF31085012181F310882E
:101E2000E169491CE161006B70B14FF6FF70FFF78B
:101E30006FFC8046FFB2FFF733FE28B1A0F80280A6
:101E40000670477000F0DEF9E069401EE06185F33E
:101E50001088BDE8F081000054524143455F415372
:101E6000534552543A2070727654726163655374CC
:101E70006F72654B65726E656C43616C6C3A206580
:101E8000636F6465203E3D203078464600000000C8
:101E9000583900080C000020F83B00085265636FB9
:101EA000726465722062757379202D206869676895
:101EB000207072696F72697479204953522075736A
:101EC000696E672073797363616C6C3F20283229D7
:101ED000000000002DE9F0410F460646FF2801D31F
:101EE000184803E0184CE06920B118A0BDE8F041A3
:101EF000FFF7F0BBEFF31085012080F31088E06955
:101F0000401CE061206B006BA8B1607898B1FF20A5
:101F1000FFF7FEFB00F0FF0839464FF6FF70FFF7B2
:101F200023FD87B2FFF7BCFD28B180F80180067061
:101F3000478000F067F9E069401EE06185F3108892
:101F4000BDE8F081103B00080C0000205265636F73
:101F5000726465722062757379202D2068696768E4
:101F6000207072696F7269747920495352207573B9
:101F7000696E672073797363616C6C3F2028342924
:101F8000000000002DE9F047994617460646FF2855
:101F900001D320A00FE0092901D32E480BE02E4CDD
:101FA000206B014491F86410B94201D22B4802E041
:101FB000E16921B12AA0BDE8F047FFF78BBBEFF341
:101FC0001085012181F31088E169491CE161006BF2
:101FD000C0B16078B0B1FF20FFF79AFB00F0FF08B6
:101FE0004946FF20FFF7C0FC00F0FF09FFB2FFF7F2
:101FF00057FD38B180F803800670477080F8029072
:1020000000F000F9E069401EE06185F31088BDE84A
:10201000F087000054524143455F415353455254A9
:102020003A20707276547261636553746F72654BB7
:1020300065726E656C43616C6C576974685061724F
:10204000616D3A20657674636F6465203E3D203093
:1020500078464600A03900080C000020403C0008EB
:102060005265636F726465722062757379202D20EA
:1020700068696768207072696F7269747920495362
:1020800052207573696E672073797363616C6C3F5E
:1020900020283329000000002DE9F04105002CD054
:1020A000174C2069002828D00F2D01D915A002E077
:1020B000E06920B123A0BDE8F041FFF70BBBEFF3CF
:1020C0001086012080F31088E069401CE061206BDD
:1020D000006B68B14FF6FF70FFF71AFB0746FFF77A
:1020E000DFFC28B1022101704780457000F08AF8BA
:1020F000E069401EE06186F31088BDE8F0810000D1
:102100000C00002054524143455F41535345525403
:102110003A20707276547261636553746F726554BD
:1021200061736B52656164793A20496E76616C69BE
:10213000642076616C756520666F722068616E64DC
:102140006C6500005265636F72646572206275731E
:1021500079202D2068696768207072696F726974D0
:102160007920495352207573696E672073797363C0
:10217000616C6C3F20283129000000002DE9F041FE
:1021800005460F2804D9BDE8F0411C48FFF7A2BA64
:10219000EFF31087012080F31088194CE069401C90
:1021A000E0616078854220D0206B006BE8B10020B0
:1021B000E0604FF6FF70FFF7ABFA80466570FFF7FF
:1021C0006FFC060011D061780320FFF78BFB01281C
:1021D00012D006203070A6F8028075700122617856
:1021E0000320FFF723FD00F00DF8E069401EE061D9
:1021F00087F31088BDE8F0810720EBE7B03B0008CB
:102200000C0000200A48006B016B00290FD04169C7
:10221000491C4161C169491CC161B1F57A7F03D391
:10222000012101620021C1610120FFF739B8704727
:102230000C0000202DE9F041044600F0CDF994F99E
:10224000455004F1240609E0606A48B1304601F0C7
:10225000F7F808B100F054FA6D1E6DB2002DF3DCF2
:102260004FF0FF3684F8456000F0D6F900F0B4F97D
:1022700094F9445004F1100709E0206948B1384648
:1022800001F0DEF808B100F03BFA6D1E6DB2002DD2
:10229000F3DC84F84460BDE8F04100F0BDB9000013
:1022A000092818D2DFE800F00D090B05070F1113FC
:1022B00015000A4870470A4870470A4870470A489C
:1022C00070470A4870470A4870470A4870470A48EA
:1022D00070470A4870470AA0704700008C36000813
:1022E00028380008EC35000870380008403600082F
:1022F000DC370008D4360008843700082837000887
:1023000070737A54726163654765744572726F7257
:1023100048616E646C65733A20496E76616C6964DD
:10232000206F626A656374636C61737321000000DF
:102330002DE9F0410546002700F0C4FA344E30681C
:1023400008B9FFF769F8F068054251D1C5B30835FF
:1023500068070ED005F00700C0F1080005446807C3
:1023600007D0502080F31188BFF34F8FBFF36F8FDA
:10237000FEE72DB3706885423AD8254810300146F3
:102380000C6801E020460C466168A94202D221682F
:102390000029F7D131688C422AD007682168016092
:1023A00060680837411B10290FD96019420708D00F
:1023B000502080F31188BFF34F8FBFF36F8FFEE77C
:1023C00016E041606560FFF711F961687068401AB6
:1023D0007060B268904200D2B060F06801430020A3
:1023E000C4E9000127B12A463946942000F0BEFA1C
:1023F00001F070F8780707D0502080F31188BFF300
:102400004F8FBFF36F8FFEE73846BDE8F0810000C5
:10241000700000200449086818B10868026D521C59
:1024200002650868704700009400002010B5031F83
:102430004FF080741C601B1F21F001011960191FEF
:10244000044B0B6014390A60091F6FF00202443814
:102450000A6010BDAD16000890F84C0070470000EF
:1024600010B5092901D30DA008E030B11B4A136B48
:102470005A1892F86440844204D219A0FFF72AF94E
:10248000002010BD03EB410192F87C20B1F88810C8
:10249000401E12FB001080B210BD00005452414398
:1024A000455F4153534552543A207569496E6465FE
:1024B000784F664F626A6563743A20496E76616C44
:1024C00069642076616C756520666F72206F626A40
:1024D000656374636C617373000000000C0000207E
:1024E00054524143455F4153534552543A20756914
:1024F000496E6465784F664F626A6563743A204935
:102500006E76616C69642076616C756520666F72A9
:10251000206F626A65637468616E646C65000000B8
:10252000D0E9013201699A60D0E901235A604A6812
:10253000824201D182684A60002202610868401E1E
:1025400008607047806C704710B5040006D000F03A
:1025500043F8A46B00F060F8204610BD502080F3D3
:102560001188BFF34F8FBFF36F8FFEE7002800D0B5
:10257000806C704700F108014FF0FF32C0E9011292
:10258000C160016100210160704700210161704755
:1025900030B50B685A1C02D000F1080202E0026953
:1025A00004E02246546825689D42FAD953684B607E
:1025B00099608A60516008610168491C016030BD02
:1025C00042684A6093688B609368596091600861C3
:1025D0000168491C01607047502080F31188BFF3E7
:1025E0004F8FBFF36F8F0A494868401C486001282D
:1025F0000CD10848006810F0FF0F07D0502080F37E
:102600001188BFF34F8FBFF36F8FFEE77047000055
:102610008800002004ED00E00849486828B1401E09
:10262000486001D180F311887047502080F31188F1
:10263000BFF34F8FBFF36F8FFEE7000088000020CD
:1026400070B5051E2CD0174EA5F108046168F0681E
:10265000014207D1502080F31188BFF34F8FBFF3A1
:102660006F8FFEE722683AB1502080F31188BFF3E4
:102670004F8FBFF36F8FFEE78143616000F022F957
:10268000606871684242014471602946962000F0FA
:102690006DF92046FEF7AAFFBDE8704000F01ABFB2
:1026A00070BD00007000002006484FF47A71006889
:1026B000B0FBF1F14FF0E020491E416107210161BB
:1026C000704700006C0000208164704708B5054C1D
:1026D0002068FFF739FF002364226946206800F074
:1026E00041FAF5E70000002008B5044C00900023F3
:1026F0001A466946206800F0EFFBF8E7000000206A
:1027000001490120C86170479400002010B50C46B3
:1027100050B1094909681831FFF73AFF2046BDE872
:1027200010400121FEF7D6BC502080F31188BFF382
:102730004F8FBFF36F8FFEE7940000202DE9F0412B
:1027400004006CD0374DE06A2968C96A884266D2B5
:10275000A069002804DB2868C06AC0F10700A061F6
:10276000E16A314F01EB8101606907EB8101DFF81C
:10277000BC8088422CD1201DFFF7D2FE012650B923
:10278000E06A00EB800157F8211021B9296906FAA7
:1027900000F0814329612868C06AE0622046FFF7A3
:1027A00075F9B8F80010084205D02046FFF773F914
:1027B000C0B2FFF771FCE06A296986400E432E61C2
:1027C00000EB800007EB8000211DFFF7F9FE02E01F
:1027D0002868C06AE0622046FFF758F9B8F8001090
:1027E00008421CD02046FFF756F9C1B20320FFF77C
:1027F000FBF806462046FFF74EF9C2B233460321E6
:102800008E20FFF7BFFB2046FFF745F9C1B22868CD
:1028100090F82C20BDE8F0410320FFF749BABDE84D
:10282000F081000094000020B45600201000002029
:10283000002800D08164704728B107490A6A026005
:10284000C96841607047502080F31188BFF34F8FF3
:10285000BFF36F8FFEE70000940000201CB5154801
:102860000024CDE900402346802213A1144800F043
:102870009DFC012809D0401C1AD1502080F31188FA
:10288000BFF34F8FBFF36F8FFEE7502080F31188A7
:10289000BFF34F8FBFF36F8F06484FF0FF312C38D7
:1028A000816201214161C460BDE81C4000F0B2B802
:1028B0001CBD0000C000002049444C450000000041
:1028C000651400080248016B491C01637047000051
:1028D000940000201C4810B5016B11B10121C161A9
:1028E00010BD0021C1610169184AB1FA81F1C1F13D
:1028F0001F0101EB810152F82130EBB102EB8101A4
:1029000001F108034A6852684A609A4201D152684C
:102910004A60D1680160FEF7F9FEFFF7B7F80C498D
:1029200009880842DCD0FEF7F1FEFFF7B4F8BDE8F5
:102930001040C0B2FFF722BC502080F31188BFF3D3
:102940004F8FBFF36F8FFEE794000020B456002036
:10295000100000200448016B09B100220A63806A5C
:10296000002800D0004770470C0000202DE9F05FE0
:10297000274C07468B46206B002846D0002A01DAF8
:10298000554200E01546EFF31086012181F31088CF
:10299000E169491CE161E16A1144E162006B78B3CD
:1029A000FF20FEF7B5FE00F0FF094FF6FF7A29463B
:1029B0005046FEF7D9FF1FFA80F8FFF771F80500BF
:1029C0001ED085F8019000202870A5F80280FFF73E
:1029D00019FC59465046FEF7C7FF1FFA80F94FF021
:1029E0000008FFF75DF858B1A0F8029080F8018068
:1029F000791C01702F70FFF705FCD4E90B01086505
:102A0000E069401EE06186F31088BDE8F09F000099
:102A10000C0000201CB532480168324A914207D1AF
:102A2000502080F31188BFF34F8FBFF36F8FFEE705
:102A300000682C49491E884207D1502080F3118834
:102A4000BFF34F8FBFF36F8FFEE7274908780190E0
:102A5000FF20087008788DF800009DF800009DF8B0
:102A6000002000F0F000904207D0502080F3118841
:102A7000BFF34F8FBFF36F8FFEE79DF800001B4A37
:102A800000F0500010700720906005E09DF80030C5
:102A90005B008DF80030401E9DF800301B06F5D419
:102AA000000200F4E0609060019808700C4820304B
:102AB000016841F470010160016841F070410160FA
:102AC000FFF7F2FD00205060FDF790FB0848016819
:102AD00041F040410160FDF779FB00201CBD000082
:102AE00000ED00E071C20F4100E400E0880000202A
:102AF00034EF00E010B5502080F31188BFF34F8F02
:102B0000BFF36F8F00F092FB18B104494FF0805073
:102B10000860002080F3118810BD000004ED00E083
:102B2000F8B517460E46050011D0C6B105FB06F0F4
:102B30005030FFF7FDFB040007D004F150023B4684
:102B4000314628460094FEF7A1FC2046F8BD5020EF
:102B500080F31188BFF34F8FBFF36F8FFEE7002024
:102B6000E6E700002DE9FF4F83B04FF000080400B6
:102B700002D0049840B111E0502080F31188BFF3D7
:102B80004F8FBFF36F8FFEE7206C38B1502080F37A
:102B90001188BFF34F8FBFF36F8FFEE700F038FB54
:102BA000A84DDFF8A4A2A94E4FF0000B4FF08059BA
:102BB00048B9059838B1502080F31188BFF34F8F82
:102BC000BFF36F8FFEE7FFF707FDA76B002F79D0EC
:102BD000D4F80C8020460499FEF7CAFB0698A0B3EF
:102BE000FEF794FDFEF752FF3188084217D02046C9
:102BF000FEF740FF3188084211D02046FEF73FFF24
:102C0000C6B22046FEF740FF2F5C2046FEF73CFF91
:102C1000285C32467830C0B23946FFF7DDF8C4F898
:102C20000C80606A58B104F1240000BF00F008FC79
:102C300028B1CAF80090BFF34F8FBFF36F8FFFF733
:102C4000EBFC012007B0BDE8F08FFFE7FEF75EFD6B
:102C5000FEF71CFF3188084218D02046FEF70AFF15
:102C60003188084212D02046FEF709FF00F0FF0825
:102C70002046FEF709FF2E5C2046FEF705FF285C84
:102C800042462830C0B23146FFF7A6F82046FEF78C
:102C9000FBFE285CA846022815D0A06B401EC5B2DA
:102CA0002046FEF7ECFEC6B22046FEF7EDFE18F811
:102CB00000002A463146FEF7B9FF7F1EA763206851
:102CC00030B108E00DE0FEF721FDFEF7E4FEE6E797
:102CD000FFF7A0FB606020690028B0D004F110006D
:102CE000A4E7059818B1B8F1000F1CD020E0FFF759
:102CF00093FC42E02046FEF7BDFE3188084243D0F7
:102D00002046FEF7BCFEC6B22046FEF7BDFE2F5C95
:102D10002046FEF7B9FE285C32465030C0B2394634
:102D2000FFF75AF830E06846FFF786FD4FF00108DC
:102D3000FFF772FCFFF7C6FDFFF74EFC94F9440065
:102D4000401C01D184F844B094F94500401C01D1E5
:102D500084F845B0FFF760FC05A9684600F0F0F97B
:102D60000028204612D0FFF765FA00F0B3FB20469A
:102D7000FEF762FC00283FF426AFFEF7C7FCFEF723
:102D800085FE31880842B5D100205BE7FEF754FC90
:102D9000E8B3FEF7BBFCFEF779FE3188084218D095
:102DA0002046FEF767FE3188084212D02046FEF723
:102DB00066FEC0B202902046FEF766FE2F5C2046FB
:102DC000FEF762FE285C39466830C0B2029AFFF70F
:102DD00003F82046FEF758FE285C02280DD0FEF7C7
:102DE00095FCFEF753FE3188084206D0FEF78EFCB4
:102DF000FEF751FEC0B2FEF7B9FF206830B9FFF709
:102E0000EBFB6068FFF79AFCFFF706FC00E013E0BD
:102E100004F124000599FFF779FC2046FFF70AFA30
:102E200000F058FB00287FF4CEAECAF80090BFF344
:102E30004F8FBFF36F8FC6E62046FFF7FBF900F018
:102E400049FBC0E60400002004ED00E01000002073
:102E500070B50D46040025D0FFF7BEFBD4E90F2066
:102E6000216802FB001161600021A1632168A1605B
:102E70000A46D4E90F01401E00FB0121E160214612
:102E80004FF0FF3001F8440F487004F110008DB18D
:102E9000FFF770FB04F12400FFF76CFBFFF7BCFBAE
:102EA000012070BD502080F31188BFF34F8FBFF316
:102EB0006F8FFEE721690029F0D000F0C1FA0028E9
:102EC000ECD004494FF080500860BFF34F8FBFF340
:102ED0006F8FE3E704ED00E02DE9FF4F85B01F465B
:102EE0004FF00008040002D0069840B111E05020D5
:102EF00080F31188BFF34F8FBFF36F8FFEE7206C15
:102F000038B1502080F31188BFF34F8FBFF36F8F1C
:102F1000FEE7022F0AD1E06B012807D0502080F392
:102F20001188BFF34F8FBFF36F8FFEE700F070F98A
:102F3000804DDFF804A2814E4FF0000B4FF0805916
:102F400048B9079838B1502080F31188BFF34F8FEC
:102F5000BFF36F8FFEE7FFF73FFBA06BE16B88428B
:102F600007D3022F05D00798F0B3B8F1000F70D047
:102F700074E0FEF7CBFBFEF789FD3188084218D0DC
:102F80002046FEF777FD3188084212D02046FEF732
:102F900076FD00F0FF082046FEF776FD2E5C204609
:102FA000FEF772FD285C42462030C0B23146FEF783
:102FB00013FF2046FEF768FD285CA846022829D0AA
:102FC000A06B401CC5B22046FEF759FDC6B2204694
:102FD000FEF75AFD18F800002A463146FEF726FE95
:102FE0003A462046069900E016E0FEF7D4F9616AF9
:102FF00019B104F1240000F023FA28B1CAF80090B6
:10300000BFF34F8FBFF36F8FFFF706FB012009B0AF
:10301000BDE8F08F0025D6E7FFF7FEFA3CE020463A
:10302000FEF728FD318808423DD02046FEF727FDF7
:10303000C6B22046FEF728FD2F5C2046FEF724FD91
:10304000285C32464830C0B23946FEF7C5FE2AE059
:10305000FFE702A8FFF7F0FB4FF00108FFF7DCFAEB
:10306000FFF730FCFFF7B8FA94F94400401C01D197
:1030700084F844B094F94500401C01D184F845B06F
:10308000FFF7CAFA07A902A800F05AF868B120466B
:10309000FFF7D0F800F01EFAFEF738FBFEF7F6FC5B
:1030A00031880842BBD10020B1E7FFF795FAA06B49
:1030B000E16B884236D1FFF7AFFAFEF727FBFEF748
:1030C000E5FC3188084219D02046FEF7D3FC318850
:1030D000084213D02046FEF7D2FCC0B20190204631
:1030E000FEF7D2FC285C00902046FEF7CDFC285C61
:1030F000DDE900127030C0B2FEF76EFE04F1100080
:103100000799FFF703FB2046FFF794F800F0E2F978
:1031100000287FF420AFCAF80090BFF34F8FBFF3B1
:103120006F8F18E7FFF778FA2046FFF783F800F073
:10313000D1F910E70400002004ED00E010000020A9
:1031400070B50D46040019D005B3FFF745FA164ACD
:10315000D1682868431C0FD02368126A934202D0BA
:1031600062688A421AD96268891A814216D2401A64
:1031700028602046FFF760FB002410E0502080F319
:103180001188BFF34F8FBFF36F8FFEE7502080F39E
:103190001188BFF34F8FBFF36F8FFEE70124FFF756
:1031A0003BFA204670BD0000940000202DE9FF5F2F
:1031B0008346DDE90E87994616468A469000FFF75A
:1031C000B7F805001AD05C20FFF7B2F8040012D05F
:1031D00025630021CDE90241CDE900874B46324607
:1031E00051465846FEF7B4F92046FDF7ABFF0120E3
:1031F00004B0BDE8F09F2846FFF722FA4FF0FF30F9
:10320000F6E70000014800687047000094000020C5
:103210000548416919B1006B18B1002070470120C1
:103220007047022070470000940000202DE9F04113
:103230003E4C0027206B012801D0A06930B93C48E2
:103240000168491C01600020FEF754FC206B20B986
:10325000E1680320491CFEF73DFE206B40B1A069E8
:10326000401CA061E06900B101273846BDE8F0814B
:10327000E668761CE66013D1606B006838B15020B8
:1032800080F31188BFF34F8FBFF36F8FFEE7606B42
:10329000A16B6163A063206A401C2062FEF7EAF91B
:1032A000A06ADFF89080864209D3606B006880B125
:1032B000606BC068C568686886420DD2A0622068ED
:1032C000C06A00EB800158F821000128CAD9012703
:1032D000C8E74FF0FF30F1E7281DFFF721F9A86A92
:1032E00018B105F11800FFF71BF92846FEF7CEFBD1
:1032F00011490988084205D02846FEF7CCFBC0B228
:10330000FEF7CAFEE86A012122698140114321616A
:1033100000EB800108EB8100291DFFF751F9E86AF5
:103320002168C96A8842C0D30127BEE79400002003
:103330005C000020B4560020100000202DE9F0476A
:1033400004004FF0000171D03A4D2868844207D044
:10335000502080F31188BFF34F8FBFF36F8FFEE7CC
:10336000206D38B1401E2065E36CE26A9A425DD060
:1033700040B15BE0502080F31188BFF34F8FBFF363
:103380006F8FFEE7201DFFF7CBF8DFF8AC9001262A
:1033900050B9E06A00EB800259F8221021B929697E
:1033A00006FA00F0814329612046FEF76FFBDFF843
:1033B0008C80B8F80010084219D02046FEF76BFB4D
:1033C000C1B20320FEF710FB07462046FEF763FB61
:1033D000C2B23B4603218F20FEF7D4FD2046FEF704
:1033E0005AFBC1B294F84C200320FEF761FCE06C5C
:1033F000E062C0F10700A0612046FEF747FBB8F885
:103400000010084205D02046FEF745FBC0B2FEF78B
:1034100043FEE06A296986400E432E6100EB80017D
:1034200009EB8100211DFFF7CBF801210846BDE81B
:10343000F087000094000020B45600201000002007
:103440002DE9F041C068C4685CB104F1180007467A
:10345000FFF766F81C4D286B012650B139461B4812
:1034600024E0502080F31188BFF34F8FBFF36F8F9C
:10347000FEE7201DFFF754F82046FEF707FB14492E
:103480000988084205D02046FEF705FBC0B2FEF7CA
:1034900003FEE16A2A6906FA01F01043286101EB94
:1034A00081000A49B43901EB8000211DFFF788F83B
:1034B000E06A2968C96A884203D90120EE61BDE843
:1034C000F0810020FBE700009400002068570020F6
:1034D000100000202DE9F041344D00242746286BD0
:1034E00038B1FFF779F8286B401E2863286B40B18C
:1034F00056E0502080F31188BFF34F8FBFF36F8FDA
:10350000FEE7A9682A48012681B38046D8F8001052
:1035100069B3D8F80C00C46804F11800FFF700F88C
:10352000201DFEF7FDFF2046FEF7B0FA214909886D
:10353000084205D02046FEF7AEFAC0B2FEF7ACFD59
:10354000E16A2A6906FA01F01043286101EB810063
:103550001749B43901EB8000211DFFF731F8E06A0B
:103560002968C96A8842D1D3EE61CFE718E0FFE746
:103570000CB1FEF77FF8AC6944B100BFFFF756FE0F
:1035800000B1EE61641EF9D10020A861E86938B18C
:103590000949012738070860BFF34F8FBFF36F8FCA
:1035A000FFF73AF83846BDE8F081000094000020AB
:1035B000685700201000002004ED00E0000000002B
:1035C00000000000010203040607080900000000D3
:1035D000010203040100010140000000C057002067
:1035E000C05B0020405C0020000000004E6F742093
:1035F000656E6F7567682053454D4150484F524581
:103600002068616E646C6573202D20696E6372653D
:10361000617365205452435F4346475F4E53454DA7
:103620004150484F524520696E20747263536E6159
:103630007073686F74436F6E6669672E6800000070
:103640004E6F7420656E6F756768205155455545FE
:103650002068616E646C6573202D20696E637265ED
:10366000617365205452435F4346475F4E51554551
:10367000554520696E20747263536E617073686F74
:1036800074436F6E6669672E680000004E6F742089
:10369000656E6F756768205441534B2068616E6496
:1036A0006C6573202D20696E6372656173652054AB
:1036B00052435F4346475F4E5441534B20696E204F
:1036C000747263536E617073686F74436F6E666972
:1036D000672E68004E6F7420656E6F7567682045B1
:1036E00056454E5447524F55502068616E646C6584
:1036F00073202D20696E6372656173652054524397
:103700005F4346475F4E4556454E5447524F5550CE
:1037100020696E20747263536E617073686F7443B6
:103720006F6E6669672E68004E6F7420656E6F75E8
:103730006768204D455353414745425546464552DB
:103740002068616E646C6573202D20696E637265FC
:10375000617365205452435F4346475F4E4D455366
:103760005341474542554646455220696E20747282
:1037700063536E617073686F74436F6E6669672E12
:10378000680000004E6F7420656E6F756768205387
:10379000545245414D4255464645522068616E643B
:1037A0006C6573202D20696E6372656173652054AA
:1037B00052435F4346475F4E53545245414D425535
:1037C0004646455220696E20747263536E61707371
:1037D000686F74436F6E6669672E68004E6F742061
:1037E000656E6F7567682054494D45522068616E5B
:1037F000646C6573202D20696E637265617365204A
:103800005452435F4346475F4E54494D45522069E9
:103810006E20747263536E617073686F74436F6E61
:103820006669672E680000004E6F7420656E6F75C4
:103830006768204953522068616E646C6573202D5F
:1038400020696E637265617365205452435F43461D
:10385000475F4E49535220696E20747263536E6104
:103860007073686F74436F6E6669672E680000003E
:103870004E6F7420656E6F756768204D55544558BE
:103880002068616E646C6573202D20696E637265BB
:10389000617365205452435F4346475F4E4D555414
:1038A000455820696E20747263536E617073686F3F
:1038B00074436F6E6669672E68000000545241437E
:1038C000455F4153534552543A205265636F7264C9
:1038D0006572206E6F7420696E697469616C697AB3
:1038E00065642C2063616C6C20765472616365455D
:1038F0006E61626C6528292066697273742100000C
:1039000054524143455F4153534552543A207072DB
:1039100076436865636B44617461546F42654F76AA
:1039200065727772697474656E466F724D756C74EA
:1039300069456E7472794576656E74733A206E6F60
:1039400066456E7472696573546F436865636B2076
:103950003D3D20300000000054524143455F41533B
:10396000534552543A2070727654726163655374B1
:103970006F72654B65726E656C43616C6C3A206F5B
:10398000626A656374436C617373203E3D205452D8
:103990004143455F4E434C415353455300000000A3
:1039A00054524143455F4153534552543A2070723B
:1039B00076547261636553746F72654B65726E65A0
:1039C0006C43616C6C57697468506172616D3A2028
:1039D0006F626A656374436C617373203E3D20546B
:1039E000524143455F4E434C415353455300000001
:1039F00054524143455F4153534552543A207072EB
:103A00007654726163654765744F626A6563745387
:103A1000746174653A206F626A656374636C617384
:103A200073203E3D2054524143455F4E434C415329
:103A30005345530054524143455F415353455254FB
:103A40003A2070727654726163655365744F626A8E
:103A500065637453746174653A206F626A65637458
:103A6000636C617373203E3D2054524143455F4E69
:103A7000434C41535345530054524143455F4153D6
:103A8000534552543A2070727654726163654765AB
:103A9000745072696F7269747950726F7065727464
:103AA000793A206F626A656374636C617373203E58
:103AB0003D2054524143455F4E434C41535345537F
:103AC0000000000054524143455F41535345525456
:103AD0003A207072765472616365536574507269EE
:103AE0006F7269747950726F70657274793A206F71
:103AF000626A656374636C617373203E3D20545247
:103B00004143455F4E434C41535345530000000031
:103B100054524143455F4153534552543A207072C9
:103B200076547261636553746F72654B65726E652E
:103B30006C43616C6C576974684E756D657269632E
:103B4000506172616D4F6E6C793A20496E76616C8E
:103B500069642076616C756520666F722065767485
:103B6000636F64650000000054524143455F415358
:103B7000534552543A2070727654726163655365AE
:103B8000745461736B496E7374616E636546696EDC
:103B900069736865643A20496E76616C6964207661
:103BA000616C756520666F722068616E646C65007B
:103BB00054524143455F4153534552543A20707229
:103BC00076547261636553746F72655461736B737D
:103BD00077697463683A20496E76616C696420760F
:103BE000616C756520666F72207461736B5F6861CC
:103BF0006E646C650000000054524143455F4153C0
:103C0000534552543A20707276547261636553740E
:103C10006F72654B65726E656C43616C6C3A2049DE
:103C20006E76616C69642076616C756520666F7272
:103C3000206F626A6563744E756D62657200000084
:103C400054524143455F4153534552543A20707298
:103C500076547261636553746F72654B65726E65FD
:103C60006C43616C6C57697468506172616D3A2085
:103C7000496E76616C69642076616C756520666F4B
:103C800072206F626A6563744E756D6265720000C2
:103C900054524143455F4153534552543A20707248
:103CA0007654726163654765744F626A65637448F0
:103CB000616E646C653A20496E76616C6964207649
:103CC000616C756520666F72206F626A65637463EC
:103CD0006C61737300000000F83C000800000020D5
:103CE000D0000000D60F0008C83D0008D00000201A
:103CF000985F0000E60F00080000000000020101CC
:103D00000200000000000000FFFF010000000000B2
:103D100000000000010000000000000000000000A2
:103D20000000000000000000000000000000000093
:103D30000000000000000000000000000000000083
:103D40000000000000000000000000000000000073
:103D50000000000000000000010000001000000052
:103D6000000000000024F40000000000000000003B
:103D70000000000000000000000000000000000043
:103D800000000000AAAAAAAA00000000000000008B
:103D90000000000000000000000000000000000023
:103DA0000000000000000000000000000000000013
:103DB0000000000000000000000000000000000003
:083DC0000000000000000000FB
:040000050800019955
:00000001FF
